{
  "contractName": "ArticlesAuthority",
  "abi": [
    {
      "inputs": [
        {
          "internalType": "address",
          "name": "authority",
          "type": "address"
        }
      ],
      "stateMutability": "nonpayable",
      "type": "constructor"
    },
    {
      "inputs": [
        {
          "internalType": "uint256",
          "name": "",
          "type": "uint256"
        }
      ],
      "name": "articles",
      "outputs": [
        {
          "internalType": "string",
          "name": "",
          "type": "string"
        }
      ],
      "stateMutability": "view",
      "type": "function"
    },
    {
      "inputs": [],
      "name": "usersSize",
      "outputs": [
        {
          "internalType": "uint256",
          "name": "",
          "type": "uint256"
        }
      ],
      "stateMutability": "view",
      "type": "function"
    },
    {
      "inputs": [],
      "name": "articlesSize",
      "outputs": [
        {
          "internalType": "uint256",
          "name": "",
          "type": "uint256"
        }
      ],
      "stateMutability": "view",
      "type": "function"
    },
    {
      "inputs": [
        {
          "internalType": "address",
          "name": "_authority",
          "type": "address"
        }
      ],
      "name": "setAuthority",
      "outputs": [],
      "stateMutability": "nonpayable",
      "type": "function"
    },
    {
      "inputs": [],
      "name": "getAuthority",
      "outputs": [
        {
          "internalType": "address",
          "name": "",
          "type": "address"
        }
      ],
      "stateMutability": "view",
      "type": "function"
    },
    {
      "inputs": [
        {
          "internalType": "string",
          "name": "articleId",
          "type": "string"
        }
      ],
      "name": "getArticleSmartContractAddr",
      "outputs": [
        {
          "internalType": "address",
          "name": "",
          "type": "address"
        }
      ],
      "stateMutability": "view",
      "type": "function"
    },
    {
      "inputs": [
        {
          "internalType": "string",
          "name": "articleId",
          "type": "string"
        }
      ],
      "name": "deleteArticleContractAddr",
      "outputs": [],
      "stateMutability": "nonpayable",
      "type": "function"
    },
    {
      "inputs": [
        {
          "internalType": "string",
          "name": "articleId",
          "type": "string"
        },
        {
          "internalType": "address",
          "name": "articleSmAddr",
          "type": "address"
        }
      ],
      "name": "setArticleSmartContractAddr",
      "outputs": [],
      "stateMutability": "nonpayable",
      "type": "function"
    }
  ],
  "bytecode": "0x608060405234801561001057600080fd5b50604051610ca6380380610ca68339818101604052810190610032919061008d565b806000806101000a81548173ffffffffffffffffffffffffffffffffffffffff021916908373ffffffffffffffffffffffffffffffffffffffff16021790555050610108565b600081519050610087816100f1565b92915050565b6000602082840312156100a3576100a26100ec565b5b60006100b184828501610078565b91505092915050565b60006100c5826100cc565b9050919050565b600073ffffffffffffffffffffffffffffffffffffffff82169050919050565b600080fd5b6100fa816100ba565b811461010557600080fd5b50565b610b8f806101176000396000f3fe608060405234801561001057600080fd5b50600436106100885760003560e01c8063ce8bb56b1161005b578063ce8bb56b14610111578063e2b178a01461012f578063edcfafe61461014d578063f090a31e1461017d57610088565b80630f19ba801461008d5780632dc76484146100bd57806349457fcd146100d95780637a9e5e4b146100f5575b600080fd5b6100a760048036038101906100a29190610781565b61019b565b6040516100b491906108f2565b60405180910390f35b6100d760048036038101906100d291906107ca565b6101e3565b005b6100f360048036038101906100ee9190610781565b61032c565b005b61010f600480360381019061010a9190610754565b610439565b005b610119610528565b604051610126919061092f565b60405180910390f35b610137610535565b60405161014491906108f2565b60405180910390f35b61016760048036038101906101629190610826565b61055e565b604051610174919061090d565b60405180910390f35b61018561060a565b604051610192919061092f565b60405180910390f35b60006001826040516101ad91906108db565b908152602001604051809103902060009054906101000a900473ffffffffffffffffffffffffffffffffffffffff169050919050565b600073ffffffffffffffffffffffffffffffffffffffff1660008054906101000a900473ffffffffffffffffffffffffffffffffffffffff1673ffffffffffffffffffffffffffffffffffffffff161480610289575060008054906101000a900473ffffffffffffffffffffffffffffffffffffffff1673ffffffffffffffffffffffffffffffffffffffff163373ffffffffffffffffffffffffffffffffffffffff16145b15610328578060018360405161029f91906108db565b908152602001604051809103902060006101000a81548173ffffffffffffffffffffffffffffffffffffffff021916908373ffffffffffffffffffffffffffffffffffffffff160217905550600282908060018154018082558091505060019003906000526020600020016000909190919091509080519060200190610326929190610617565b505b5050565b600073ffffffffffffffffffffffffffffffffffffffff1660008054906101000a900473ffffffffffffffffffffffffffffffffffffffff1673ffffffffffffffffffffffffffffffffffffffff1614806103d2575060008054906101000a900473ffffffffffffffffffffffffffffffffffffffff1673ffffffffffffffffffffffffffffffffffffffff163373ffffffffffffffffffffffffffffffffffffffff16145b156104365760006001826040516103e991906108db565b908152602001604051809103902060006101000a81548173ffffffffffffffffffffffffffffffffffffffff021916908373ffffffffffffffffffffffffffffffffffffffff1602179055505b50565b600073ffffffffffffffffffffffffffffffffffffffff1660008054906101000a900473ffffffffffffffffffffffffffffffffffffffff1673ffffffffffffffffffffffffffffffffffffffff1614806104df575060008054906101000a900473ffffffffffffffffffffffffffffffffffffffff1673ffffffffffffffffffffffffffffffffffffffff163373ffffffffffffffffffffffffffffffffffffffff16145b1561052557806000806101000a81548173ffffffffffffffffffffffffffffffffffffffff021916908373ffffffffffffffffffffffffffffffffffffffff1602179055505b50565b6000600280549050905090565b60008060009054906101000a900473ffffffffffffffffffffffffffffffffffffffff16905090565b6002818154811061056e57600080fd5b90600052602060002001600091509050805461058990610a45565b80601f01602080910402602001604051908101604052809291908181526020018280546105b590610a45565b80156106025780601f106105d757610100808354040283529160200191610602565b820191906000526020600020905b8154815290600101906020018083116105e557829003601f168201915b505050505081565b6000600280549050905090565b82805461062390610a45565b90600052602060002090601f016020900481019282610645576000855561068c565b82601f1061065e57805160ff191683800117855561068c565b8280016001018555821561068c579182015b8281111561068b578251825591602001919060010190610670565b5b509050610699919061069d565b5090565b5b808211156106b657600081600090555060010161069e565b5090565b60006106cd6106c88461096f565b61094a565b9050828152602081018484840111156106e9576106e8610b0b565b5b6106f4848285610a03565b509392505050565b60008135905061070b81610b2b565b92915050565b600082601f83011261072657610725610b06565b5b81356107368482602086016106ba565b91505092915050565b60008135905061074e81610b42565b92915050565b60006020828403121561076a57610769610b15565b5b6000610778848285016106fc565b91505092915050565b60006020828403121561079757610796610b15565b5b600082013567ffffffffffffffff8111156107b5576107b4610b10565b5b6107c184828501610711565b91505092915050565b600080604083850312156107e1576107e0610b15565b5b600083013567ffffffffffffffff8111156107ff576107fe610b10565b5b61080b85828601610711565b925050602061081c858286016106fc565b9150509250929050565b60006020828403121561083c5761083b610b15565b5b600061084a8482850161073f565b91505092915050565b61085c816109c7565b82525050565b600061086d826109a0565b61087781856109ab565b9350610887818560208601610a12565b61089081610b1a565b840191505092915050565b60006108a6826109a0565b6108b081856109bc565b93506108c0818560208601610a12565b80840191505092915050565b6108d5816109f9565b82525050565b60006108e7828461089b565b915081905092915050565b60006020820190506109076000830184610853565b92915050565b600060208201905081810360008301526109278184610862565b905092915050565b600060208201905061094460008301846108cc565b92915050565b6000610954610965565b90506109608282610a77565b919050565b6000604051905090565b600067ffffffffffffffff82111561098a57610989610ad7565b5b61099382610b1a565b9050602081019050919050565b600081519050919050565b600082825260208201905092915050565b600081905092915050565b60006109d2826109d9565b9050919050565b600073ffffffffffffffffffffffffffffffffffffffff82169050919050565b6000819050919050565b82818337600083830152505050565b60005b83811015610a30578082015181840152602081019050610a15565b83811115610a3f576000848401525b50505050565b60006002820490506001821680610a5d57607f821691505b60208210811415610a7157610a70610aa8565b5b50919050565b610a8082610b1a565b810181811067ffffffffffffffff82111715610a9f57610a9e610ad7565b5b80604052505050565b7f4e487b7100000000000000000000000000000000000000000000000000000000600052602260045260246000fd5b7f4e487b7100000000000000000000000000000000000000000000000000000000600052604160045260246000fd5b600080fd5b600080fd5b600080fd5b600080fd5b6000601f19601f8301169050919050565b610b34816109c7565b8114610b3f57600080fd5b50565b610b4b816109f9565b8114610b5657600080fd5b5056fea264697066735822122095a08a2b17cd08a17cbb52ea84fecda7251a021ca03cc1fd1194080144a55bbb64736f6c63430008070033",
  "immutableReferences": {},
  "source": "//SPDX-License-Identifier: MIT\r\npragma solidity ^0.8.7;\r\n\r\n\r\ncontract ArticlesAuthority {\r\n\r\n    address authority_address; // string, only journal authority can elevate user\r\n\r\n    mapping(string => address) ArticlesSmartContractsAddrs;\r\n\r\n    string [] public articles;\r\n\r\n    modifier onlyAuthority(){\r\n        // default (unset) address type is 0x0\r\n        if (authority_address == address(0) || msg.sender == authority_address ) _;\r\n    }\r\n\r\n\r\n    constructor(address authority) {\r\n        authority_address = authority;\r\n    }\r\n\r\n    function usersSize() public view returns (uint) {\r\n        return articles.length;\r\n    }\r\n\r\n    // functions\r\n\r\n    function articlesSize() public view returns (uint) {\r\n        return articles.length;\r\n    }\r\n\r\n    function setAuthority(address _authority) public onlyAuthority {\r\n        authority_address = _authority;\r\n    }\r\n\r\n     function getAuthority() external view returns (address) {\r\n        return authority_address;\r\n    }\r\n\r\n    function getArticleSmartContractAddr(string memory articleId) external view returns (address){\r\n\r\n        return ArticlesSmartContractsAddrs[articleId];\r\n    }\r\n\r\n    function deleteArticleContractAddr(string memory articleId) public onlyAuthority {\r\n\r\n        //need to add if condition in case is not authority to return error\r\n        ArticlesSmartContractsAddrs[articleId] = 0x0000000000000000000000000000000000000000;\r\n       \r\n    }\r\n\r\n    function setArticleSmartContractAddr(string memory articleId,address articleSmAddr) public onlyAuthority {\r\n\r\n        ArticlesSmartContractsAddrs[articleId] = articleSmAddr;\r\n        articles.push(articleId);\r\n       \r\n    }\r\n\r\n}",
  "sourcePath": "C:\\UserData\\Projects\\DecentrilizedJournal\\decentralized-journal\\blockchain\\DAO\\contracts\\ArticleAuthority.sol",
  "compiler": {
    "name": "solc",
    "version": "0.8.7+commit.e28d00a7.Emscripten.clang"
  },
  "schemaVersion": "3.4.8",
  "updatedAt": "2022-09-20T17:57:24.199Z",
  "devdoc": {
    "kind": "dev",
    "methods": {},
    "version": 1
  },
  "userdoc": {
    "kind": "user",
    "methods": {},
    "version": 1
  }
}