{
  "contractName": "Article",
  "abi": [
    {
      "inputs": [],
      "stateMutability": "nonpayable",
      "type": "constructor"
    },
    {
      "anonymous": false,
      "inputs": [
        {
          "indexed": false,
          "internalType": "string",
          "name": "articleId",
          "type": "string"
        },
        {
          "indexed": false,
          "internalType": "string",
          "name": "articleIpfsHash",
          "type": "string"
        }
      ],
      "name": "ArticleSubmitted",
      "type": "event"
    },
    {
      "inputs": [],
      "name": "authorAddress",
      "outputs": [
        {
          "internalType": "address",
          "name": "",
          "type": "address"
        }
      ],
      "stateMutability": "view",
      "type": "function"
    },
    {
      "inputs": [
        {
          "internalType": "string",
          "name": "decison",
          "type": "string"
        }
      ],
      "name": "vote",
      "outputs": [],
      "stateMutability": "nonpayable",
      "type": "function"
    },
    {
      "inputs": [
        {
          "internalType": "address",
          "name": "userAddress",
          "type": "address"
        }
      ],
      "name": "getUserRole",
      "outputs": [
        {
          "internalType": "enum JournalDID.Journal_usertype",
          "name": "",
          "type": "uint8"
        }
      ],
      "stateMutability": "view",
      "type": "function"
    },
    {
      "inputs": [],
      "name": "getVotes",
      "outputs": [
        {
          "internalType": "uint256[]",
          "name": "",
          "type": "uint256[]"
        }
      ],
      "stateMutability": "view",
      "type": "function"
    },
    {
      "inputs": [],
      "name": "getVoteByAddress",
      "outputs": [
        {
          "internalType": "enum Article.EditorDecision",
          "name": "",
          "type": "uint8"
        }
      ],
      "stateMutability": "view",
      "type": "function"
    }
  ],
  "bytecode": "0x6080604052732c6398652f40970e1897b07f472684c4b431ec6f600160006101000a81548173ffffffffffffffffffffffffffffffffffffffff021916908373ffffffffffffffffffffffffffffffffffffffff16021790555034801561006557600080fd5b50336000806101000a81548173ffffffffffffffffffffffffffffffffffffffff021916908373ffffffffffffffffffffffffffffffffffffffff1602179055506001600460006101000a81548160ff021916908360038111156100cc576100cb6100d6565b5b0217905550610105565b7f4e487b7100000000000000000000000000000000000000000000000000000000600052602160045260246000fd5b61106e806101146000396000f3fe608060405234801561001057600080fd5b50600436106100575760003560e01c806302a867811461005c5780630dc960151461007a5780632782085114610098578063fc36e15b146100c8578063fef923db146100e4575b600080fd5b610064610102565b6040516100719190610a89565b60405180910390f35b610082610126565b60405161008f9190610aa4565b60405180910390f35b6100b260048036038101906100ad919061089e565b61017e565b6040516100bf9190610ae1565b60405180910390f35b6100e260048036038101906100dd9190610925565b6102c0565b005b6100ec6106c6565b6040516100f99190610ac6565b60405180910390f35b60008054906101000a900473ffffffffffffffffffffffffffffffffffffffff1681565b6060600980548060200260200160405190810160405280929190818152602001828054801561017457602002820191906000526020600020905b815481526020019060010190808311610160575b5050505050905090565b600080600160009054906101000a900473ffffffffffffffffffffffffffffffffffffffff16905060008173ffffffffffffffffffffffffffffffffffffffff1663a4097d90856040518263ffffffff1660e01b81526004016101e19190610a89565b60206040518083038186803b1580156101f957600080fd5b505afa15801561020d573d6000803e3d6000fd5b505050506040513d601f19601f8201168201806040525081019061023191906108cb565b905060008190508073ffffffffffffffffffffffffffffffffffffffff166315dae03e6040518163ffffffff1660e01b815260040160206040518083038186803b15801561027e57600080fd5b505afa158015610292573d6000803e3d6000fd5b505050506040513d601f19601f820116820180604052508101906102b691906108f8565b9350505050919050565b600260038111156102d4576102d3610e4a565b5b6102dd3361017e565b60038111156102ef576102ee610e4a565b5b1461032f576040517f08c379a000000000000000000000000000000000000000000000000000000000815260040161032690610b3c565b60405180910390fd5b6000600281111561034357610342610e4a565b5b600760003373ffffffffffffffffffffffffffffffffffffffff1673ffffffffffffffffffffffffffffffffffffffff16815260200190815260200160002060009054906101000a900460ff1660028111156103a2576103a1610e4a565b5b146103e2576040517f08c379a00000000000000000000000000000000000000000000000000000000081526004016103d990610afc565b60405180910390fd5b60036009805490501061042a576040517f08c379a000000000000000000000000000000000000000000000000000000000815260040161042190610b1c565b60405180910390fd5b6040518060400160405280600681526020017f4143434550540000000000000000000000000000000000000000000000000000815250805190602001208180519060200120141561056b576001600760003373ffffffffffffffffffffffffffffffffffffffff1673ffffffffffffffffffffffffffffffffffffffff16815260200190815260200160002060006101000a81548160ff021916908360028111156104d8576104d7610e4a565b5b02179055506008339080600181540180825580915050600190039060005260206000200160009091909190916101000a81548173ffffffffffffffffffffffffffffffffffffffff021916908373ffffffffffffffffffffffffffffffffffffffff1602179055506009600190806001815401808255809150506001900390600052602060002001600090919091909150555b6040518060400160405280600681526020017f52454a454354000000000000000000000000000000000000000000000000000081525080519060200120818051906020012014156106ac576002600760003373ffffffffffffffffffffffffffffffffffffffff1673ffffffffffffffffffffffffffffffffffffffff16815260200190815260200160002060006101000a81548160ff0219169083600281111561061957610618610e4a565b5b02179055506008339080600181540180825580915050600190039060005260206000200160009091909190916101000a81548173ffffffffffffffffffffffffffffffffffffffff021916908373ffffffffffffffffffffffffffffffffffffffff1602179055506009600090806001815401808255809150506001900390600052602060002001600090919091909150555b600360098054905014156106c3576106c261071a565b5b50565b6000600760003373ffffffffffffffffffffffffffffffffffffffff1673ffffffffffffffffffffffffffffffffffffffff16815260200190815260200160002060009054906101000a900460ff16905090565b6000805b60098054905081101561076a576009818154811061073f5761073e610e79565b5b9060005260206000200154826107559190610bfc565b9150808061076290610da3565b91505061071e565b5060326064600980549050836107809190610c52565b61078a9190610c83565b11156107c0576002600460006101000a81548160ff021916908360038111156107b6576107b5610e4a565b5b02179055506107ec565b6003600460006101000a81548160ff021916908360038111156107e6576107e5610e4a565b5b02179055505b50565b60006108026107fd84610b81565b610b5c565b90508281526020810184848401111561081e5761081d610edc565b5b610829848285610d63565b509392505050565b60008135905061084081611011565b92915050565b60008151905061085581611011565b92915050565b60008151905061086a81611028565b92915050565b600082601f83011261088557610884610ed7565b5b81356108958482602086016107ef565b91505092915050565b6000602082840312156108b4576108b3610ee6565b5b60006108c284828501610831565b91505092915050565b6000602082840312156108e1576108e0610ee6565b5b60006108ef84828501610846565b91505092915050565b60006020828403121561090e5761090d610ee6565b5b600061091c8482850161085b565b91505092915050565b60006020828403121561093b5761093a610ee6565b5b600082013567ffffffffffffffff81111561095957610958610ee1565b5b61096584828501610870565b91505092915050565b600061097a8383610a7a565b60208301905092915050565b61098f81610cdd565b82525050565b60006109a082610bc2565b6109aa8185610bda565b93506109b583610bb2565b8060005b838110156109e65781516109cd888261096e565b97506109d883610bcd565b9250506001810190506109b9565b5085935050505092915050565b6109fc81610d3f565b82525050565b610a0b81610d51565b82525050565b6000610a1e602a83610beb565b9150610a2982610efc565b604082019050919050565b6000610a41603d83610beb565b9150610a4c82610f4b565b604082019050919050565b6000610a64603d83610beb565b9150610a6f82610f9a565b604082019050919050565b610a8381610d35565b82525050565b6000602082019050610a9e6000830184610986565b92915050565b60006020820190508181036000830152610abe8184610995565b905092915050565b6000602082019050610adb60008301846109f3565b92915050565b6000602082019050610af66000830184610a02565b92915050565b60006020820190508181036000830152610b1581610a11565b9050919050565b60006020820190508181036000830152610b3581610a34565b9050919050565b60006020820190508181036000830152610b5581610a57565b9050919050565b6000610b66610b77565b9050610b728282610d72565b919050565b6000604051905090565b600067ffffffffffffffff821115610b9c57610b9b610ea8565b5b610ba582610eeb565b9050602081019050919050565b6000819050602082019050919050565b600081519050919050565b6000602082019050919050565b600082825260208201905092915050565b600082825260208201905092915050565b6000610c0782610d35565b9150610c1283610d35565b9250827fffffffffffffffffffffffffffffffffffffffffffffffffffffffffffffffff03821115610c4757610c46610dec565b5b828201905092915050565b6000610c5d82610d35565b9150610c6883610d35565b925082610c7857610c77610e1b565b5b828204905092915050565b6000610c8e82610d35565b9150610c9983610d35565b9250817fffffffffffffffffffffffffffffffffffffffffffffffffffffffffffffffff0483118215151615610cd257610cd1610dec565b5b828202905092915050565b6000610ce882610d15565b9050919050565b6000819050610cfd82610fe9565b919050565b6000819050610d1082610ffd565b919050565b600073ffffffffffffffffffffffffffffffffffffffff82169050919050565b6000819050919050565b6000610d4a82610cef565b9050919050565b6000610d5c82610d02565b9050919050565b82818337600083830152505050565b610d7b82610eeb565b810181811067ffffffffffffffff82111715610d9a57610d99610ea8565b5b80604052505050565b6000610dae82610d35565b91507fffffffffffffffffffffffffffffffffffffffffffffffffffffffffffffffff821415610de157610de0610dec565b5b600182019050919050565b7f4e487b7100000000000000000000000000000000000000000000000000000000600052601160045260246000fd5b7f4e487b7100000000000000000000000000000000000000000000000000000000600052601260045260246000fd5b7f4e487b7100000000000000000000000000000000000000000000000000000000600052602160045260246000fd5b7f4e487b7100000000000000000000000000000000000000000000000000000000600052603260045260246000fd5b7f4e487b7100000000000000000000000000000000000000000000000000000000600052604160045260246000fd5b600080fd5b600080fd5b600080fd5b600080fd5b6000601f19601f8301169050919050565b7f596f7520616c726561647920636173746564206120766f746520666f7220746860008201527f69732061727469636c6500000000000000000000000000000000000000000000602082015250565b7f41727469636c6520686173206265656e20766f7465642e20596f752063616e6e60008201527f6f742073756d6269742074686520766f74696e6720616e796d6f72652e000000602082015250565b7f596f75206d757374206265206120656469746f7220746f20766f746520666f7260008201527f20616e20616363657074616e6365206f6620616e2061727469636c652e000000602082015250565b60038110610ffa57610ff9610e4a565b5b50565b6004811061100e5761100d610e4a565b5b50565b61101a81610cdd565b811461102557600080fd5b50565b6004811061103557600080fd5b5056fea2646970667358221220506394d7a7b8e8af9e5522a05cda4a653530ac7207d11c6daf560efc4699a30664736f6c63430008070033",
  "immutableReferences": {},
  "source": "//SPDX-License-Identifier: MIT\r\npragma solidity ^0.8.7;\r\n\r\nimport \"./Journal_DID.sol\";\r\n\r\nimport \"./UserAuthority.sol\";\r\n\r\ncontract Article {\r\n\r\n    uint constant REQUIRED_VOTES = 3;\r\n    uint constant VOTING_PERIOD_DURATION = 45 days;\r\n\r\n    // address of the user (could be a reviewer/editor/...)\r\n    address public authorAddress;\r\n\r\n    address authtoritySMadress = 0x2c6398652F40970e1897B07F472684c4B431ec6f;\r\n\r\n    enum ArticleStatus { NONE, VOTING, PUBLISHED,REJECTED}\r\n    \r\n    string ipfsHash;\r\n    string cloudId;\r\n    ArticleStatus status;\r\n\r\n    uint256 submissionTime;\r\n    uint256 publishonTime;\r\n\r\n    enum EditorDecision {NONE,ACCEPT,REJECT}\r\n    mapping(address => EditorDecision) votes;\r\n    address []  votesAdresses;\r\n    uint [] votesMatrix;\r\n\r\n    uint32 collateralTotal;\r\n    mapping(address => uint256) requestTimes;\r\n    mapping(address => uint32) collateralAmounts;\r\n    mapping(address => bool) votingRights;\r\n\r\n\r\n\r\n    // events triggered by specific actions (article submitted, accepted/rejected)\r\n    event ArticleSubmitted(string articleId, string articleIpfsHash);\r\n\r\n\r\n    constructor() {\r\n        authorAddress = msg.sender;\r\n        status = ArticleStatus.VOTING;\r\n\r\n    }\r\n\r\n    // functions\r\n\r\n    function vote(string memory decison) public{\r\n\r\n        require(\r\n            getUserRole(msg.sender) == JournalDID.Journal_usertype.EDITOR,\r\n            \"You must be a editor to vote for an acceptance of an article.\"\r\n        );\r\n\r\n        require(\r\n           votes[msg.sender] == EditorDecision.NONE,\r\n            \"You already casted a vote for this article\"\r\n        );\r\n\r\n        require(\r\n            votesMatrix.length < REQUIRED_VOTES,\r\n            \"Article has been voted. You cannot sumbit the voting anymore.\"\r\n        );\r\n\r\n        \r\n        \r\n        if(keccak256(bytes(decison))  == keccak256(bytes(\"ACCEPT\"))){\r\n \r\n            votes[msg.sender] = EditorDecision.ACCEPT;\r\n            votesAdresses.push(msg.sender);\r\n            votesMatrix.push(1);\r\n\r\n        }\r\n\r\n        if(keccak256(bytes(decison))  == keccak256(bytes(\"REJECT\"))){\r\n            votes[msg.sender] = EditorDecision.REJECT;\r\n            votesAdresses.push(msg.sender);\r\n            votesMatrix.push(0);\r\n\r\n        }\r\n\r\n        if (votesMatrix.length == REQUIRED_VOTES) {\r\n            makeDecision();\r\n        }\r\n            \r\n\r\n    }\r\n\r\n    function makeDecision() internal {\r\n\r\n        uint votesSum = 0;\r\n\r\n        for(uint i=0; i<votesMatrix.length; i++){\r\n               votesSum = votesSum + votesMatrix[i];\r\n        }\r\n\r\n        //potential issue if required_votes is changed to 4 or 6 or so on\r\n        if((votesSum / votesMatrix.length) * 100 > 50){\r\n            status = ArticleStatus.PUBLISHED;\r\n        }else{\r\n             status = ArticleStatus.REJECTED;\r\n        }\r\n\r\n    }\r\n\r\n     function getUserRole(address userAddress) public view returns (JournalDID.Journal_usertype) {\r\n\r\n         UserAuthority userAuth = UserAuthority(authtoritySMadress);\r\n\r\n         address userDID = userAuth.getUserSmartContractAddr(userAddress);\r\n\r\n         JournalDID userDIDSmartContract = JournalDID(userDID);\r\n    \r\n\r\n        return userDIDSmartContract.getType();\r\n    }\r\n\r\n\r\n    function getVotes() public view returns (uint [] memory) {\r\n\r\n        \r\n/*\r\n        for(uint i=0; i<votesAdresses.length; i++){\r\n            if(votes[votesAdresses[i]] == EditorDecision.ACCEPT){\r\n                votesReturn[i] = 1;\r\n            }else{\r\n                 votesReturn[i] = 0;\r\n            }\r\n            \r\n        }\r\n*/\r\n        return votesMatrix;\r\n    }\r\n\r\n    function getVoteByAddress() public view returns (EditorDecision) {\r\n\r\n        return votes[msg.sender];\r\n    }\r\n\r\n}",
  "sourcePath": "C:\\UserData\\Projects\\DecentrilizedJournal\\decentralized-journal\\blockchain\\DAO\\contracts\\Article.sol",
  "compiler": {
    "name": "solc",
    "version": "0.8.7+commit.e28d00a7.Emscripten.clang"
  },
  "schemaVersion": "3.4.8",
  "updatedAt": "2022-09-20T17:57:24.194Z",
  "devdoc": {
    "kind": "dev",
    "methods": {},
    "version": 1
  },
  "userdoc": {
    "kind": "user",
    "methods": {},
    "version": 1
  }
}