{
  "contractName": "JournalDID",
  "abi": [
    {
      "inputs": [],
      "stateMutability": "nonpayable",
      "type": "constructor"
    },
    {
      "inputs": [
        {
          "internalType": "address",
          "name": "_ownerAddress",
          "type": "address"
        },
        {
          "internalType": "int256",
          "name": "_hash",
          "type": "int256"
        }
      ],
      "name": "changeOwner",
      "outputs": [],
      "stateMutability": "nonpayable",
      "type": "function"
    },
    {
      "inputs": [],
      "name": "getOwner",
      "outputs": [
        {
          "internalType": "address",
          "name": "",
          "type": "address"
        }
      ],
      "stateMutability": "view",
      "type": "function"
    },
    {
      "inputs": [
        {
          "internalType": "int256",
          "name": "_hash",
          "type": "int256"
        }
      ],
      "name": "setHash",
      "outputs": [],
      "stateMutability": "nonpayable",
      "type": "function"
    },
    {
      "inputs": [],
      "name": "getHash",
      "outputs": [
        {
          "internalType": "int256",
          "name": "",
          "type": "int256"
        }
      ],
      "stateMutability": "view",
      "type": "function"
    },
    {
      "inputs": [
        {
          "internalType": "address",
          "name": "_authority",
          "type": "address"
        }
      ],
      "name": "setAuthority",
      "outputs": [],
      "stateMutability": "nonpayable",
      "type": "function"
    },
    {
      "inputs": [],
      "name": "getAuthority",
      "outputs": [
        {
          "internalType": "address",
          "name": "",
          "type": "address"
        }
      ],
      "stateMutability": "view",
      "type": "function"
    },
    {
      "inputs": [],
      "name": "getType",
      "outputs": [
        {
          "internalType": "enum JournalDID.Journal_usertype",
          "name": "",
          "type": "uint8"
        }
      ],
      "stateMutability": "view",
      "type": "function"
    },
    {
      "inputs": [],
      "name": "setReviewerType",
      "outputs": [],
      "stateMutability": "nonpayable",
      "type": "function"
    },
    {
      "inputs": [],
      "name": "setAuthorType",
      "outputs": [],
      "stateMutability": "nonpayable",
      "type": "function"
    },
    {
      "inputs": [],
      "name": "setEditorType",
      "outputs": [],
      "stateMutability": "nonpayable",
      "type": "function"
    },
    {
      "inputs": [
        {
          "internalType": "string",
          "name": "_newJson",
          "type": "string"
        }
      ],
      "name": "setUserData",
      "outputs": [],
      "stateMutability": "nonpayable",
      "type": "function"
    },
    {
      "inputs": [],
      "name": "getUserData",
      "outputs": [
        {
          "internalType": "string",
          "name": "",
          "type": "string"
        }
      ],
      "stateMutability": "view",
      "type": "function"
    }
  ],
  "bytecode": "0x60806040523480156200001157600080fd5b50336000806101000a81548173ffffffffffffffffffffffffffffffffffffffff021916908373ffffffffffffffffffffffffffffffffffffffff1602179055506000600260006101000a81548160ff021916908360038111156200007b576200007a620001ba565b5b02179055506040518060400160405280600281526020017f7b7d00000000000000000000000000000000000000000000000000000000000081525060039080519060200190620000cd929190620000d4565b5062000218565b828054620000e29062000184565b90600052602060002090601f01602090048101928262000106576000855562000152565b82601f106200012157805160ff191683800117855562000152565b8280016001018555821562000152579182015b828111156200015157825182559160200191906001019062000134565b5b50905062000161919062000165565b5090565b5b808211156200018057600081600090555060010162000166565b5090565b600060028204905060018216806200019d57607f821691505b60208210811415620001b457620001b3620001e9565b5b50919050565b7f4e487b7100000000000000000000000000000000000000000000000000000000600052602160045260246000fd5b7f4e487b7100000000000000000000000000000000000000000000000000000000600052602260045260246000fd5b610dd180620002286000396000f3fe608060405234801561001057600080fd5b50600436106100b45760003560e01c80637a9e5e4b116100715780637a9e5e4b14610153578063893d20e81461016f5780638cc067cb1461018d578063d13319c414610197578063e077c023146101b5578063e2b178a0146101bf576100b4565b806315dae03e146100b957806322e8c87d146100d757806341ffc0e0146100f557806350aed379146100ff5780635f1df7a81461011b578063702c9a3c14610137575b600080fd5b6100c16101dd565b6040516100ce9190610ad7565b60405180910390f35b6100df6101f4565b6040516100ec9190610b0d565b60405180910390f35b6100fd610286565b005b61011960048036038101906101149190610a0d565b610362565b005b610135600480360381019061013091906109a0565b61042c565b005b610151600480360381019061014c91906109e0565b6104cc565b005b61016d60048036038101906101689190610973565b61052b565b005b61017761061f565b6040516101849190610abc565b60405180910390f35b610195610648565b005b61019f610725565b6040516101ac9190610af2565b60405180910390f35b6101bd61072f565b005b6101c761080c565b6040516101d49190610abc565b60405180910390f35b6000600260009054906101000a900460ff16905090565b60606003805461020390610c44565b80601f016020809104026020016040519081016040528092919081815260200182805461022f90610c44565b801561027c5780601f106102515761010080835404028352916020019161027c565b820191906000526020600020905b81548152906001019060200180831161025f57829003601f168201915b5050505050905090565b600073ffffffffffffffffffffffffffffffffffffffff16600260019054906101000a900473ffffffffffffffffffffffffffffffffffffffff1673ffffffffffffffffffffffffffffffffffffffff1614806103305750600260019054906101000a900473ffffffffffffffffffffffffffffffffffffffff1673ffffffffffffffffffffffffffffffffffffffff163373ffffffffffffffffffffffffffffffffffffffff16145b156103605760028060006101000a81548160ff0219169083600381111561035a57610359610ca7565b5b02179055505b565b600073ffffffffffffffffffffffffffffffffffffffff16600260019054906101000a900473ffffffffffffffffffffffffffffffffffffffff1673ffffffffffffffffffffffffffffffffffffffff16148061040c5750600260019054906101000a900473ffffffffffffffffffffffffffffffffffffffff1673ffffffffffffffffffffffffffffffffffffffff163373ffffffffffffffffffffffffffffffffffffffff16145b15610429578060039080519060200190610427929190610836565b505b50565b60008054906101000a900473ffffffffffffffffffffffffffffffffffffffff1673ffffffffffffffffffffffffffffffffffffffff163373ffffffffffffffffffffffffffffffffffffffff1614156104c857816000806101000a81548173ffffffffffffffffffffffffffffffffffffffff021916908373ffffffffffffffffffffffffffffffffffffffff160217905550806001819055505b5050565b60008054906101000a900473ffffffffffffffffffffffffffffffffffffffff1673ffffffffffffffffffffffffffffffffffffffff163373ffffffffffffffffffffffffffffffffffffffff16141561052857806001819055505b50565b600073ffffffffffffffffffffffffffffffffffffffff16600260019054906101000a900473ffffffffffffffffffffffffffffffffffffffff1673ffffffffffffffffffffffffffffffffffffffff1614806105d55750600260019054906101000a900473ffffffffffffffffffffffffffffffffffffffff1673ffffffffffffffffffffffffffffffffffffffff163373ffffffffffffffffffffffffffffffffffffffff16145b1561061c5780600260016101000a81548173ffffffffffffffffffffffffffffffffffffffff021916908373ffffffffffffffffffffffffffffffffffffffff1602179055505b50565b60008060009054906101000a900473ffffffffffffffffffffffffffffffffffffffff16905090565b600073ffffffffffffffffffffffffffffffffffffffff16600260019054906101000a900473ffffffffffffffffffffffffffffffffffffffff1673ffffffffffffffffffffffffffffffffffffffff1614806106f25750600260019054906101000a900473ffffffffffffffffffffffffffffffffffffffff1673ffffffffffffffffffffffffffffffffffffffff163373ffffffffffffffffffffffffffffffffffffffff16145b15610723576003600260006101000a81548160ff0219169083600381111561071d5761071c610ca7565b5b02179055505b565b6000600154905090565b600073ffffffffffffffffffffffffffffffffffffffff16600260019054906101000a900473ffffffffffffffffffffffffffffffffffffffff1673ffffffffffffffffffffffffffffffffffffffff1614806107d95750600260019054906101000a900473ffffffffffffffffffffffffffffffffffffffff1673ffffffffffffffffffffffffffffffffffffffff163373ffffffffffffffffffffffffffffffffffffffff16145b1561080a576001600260006101000a81548160ff0219169083600381111561080457610803610ca7565b5b02179055505b565b6000600260019054906101000a900473ffffffffffffffffffffffffffffffffffffffff16905090565b82805461084290610c44565b90600052602060002090601f01602090048101928261086457600085556108ab565b82601f1061087d57805160ff19168380011785556108ab565b828001600101855582156108ab579182015b828111156108aa57825182559160200191906001019061088f565b5b5090506108b891906108bc565b5090565b5b808211156108d55760008160009055506001016108bd565b5090565b60006108ec6108e784610b54565b610b2f565b90508281526020810184848401111561090857610907610d39565b5b610913848285610c02565b509392505050565b60008135905061092a81610d6d565b92915050565b60008135905061093f81610d84565b92915050565b600082601f83011261095a57610959610d34565b5b813561096a8482602086016108d9565b91505092915050565b60006020828403121561098957610988610d43565b5b60006109978482850161091b565b91505092915050565b600080604083850312156109b7576109b6610d43565b5b60006109c58582860161091b565b92505060206109d685828601610930565b9150509250929050565b6000602082840312156109f6576109f5610d43565b5b6000610a0484828501610930565b91505092915050565b600060208284031215610a2357610a22610d43565b5b600082013567ffffffffffffffff811115610a4157610a40610d3e565b5b610a4d84828501610945565b91505092915050565b610a5f81610ba1565b82525050565b610a6e81610bf0565b82525050565b610a7d81610bc6565b82525050565b6000610a8e82610b85565b610a988185610b90565b9350610aa8818560208601610c11565b610ab181610d48565b840191505092915050565b6000602082019050610ad16000830184610a56565b92915050565b6000602082019050610aec6000830184610a65565b92915050565b6000602082019050610b076000830184610a74565b92915050565b60006020820190508181036000830152610b278184610a83565b905092915050565b6000610b39610b4a565b9050610b458282610c76565b919050565b6000604051905090565b600067ffffffffffffffff821115610b6f57610b6e610d05565b5b610b7882610d48565b9050602081019050919050565b600081519050919050565b600082825260208201905092915050565b6000610bac82610bd0565b9050919050565b6000819050610bc182610d59565b919050565b6000819050919050565b600073ffffffffffffffffffffffffffffffffffffffff82169050919050565b6000610bfb82610bb3565b9050919050565b82818337600083830152505050565b60005b83811015610c2f578082015181840152602081019050610c14565b83811115610c3e576000848401525b50505050565b60006002820490506001821680610c5c57607f821691505b60208210811415610c7057610c6f610cd6565b5b50919050565b610c7f82610d48565b810181811067ffffffffffffffff82111715610c9e57610c9d610d05565b5b80604052505050565b7f4e487b7100000000000000000000000000000000000000000000000000000000600052602160045260246000fd5b7f4e487b7100000000000000000000000000000000000000000000000000000000600052602260045260246000fd5b7f4e487b7100000000000000000000000000000000000000000000000000000000600052604160045260246000fd5b600080fd5b600080fd5b600080fd5b600080fd5b6000601f19601f8301169050919050565b60048110610d6a57610d69610ca7565b5b50565b610d7681610ba1565b8114610d8157600080fd5b50565b610d8d81610bc6565b8114610d9857600080fd5b5056fea2646970667358221220eb76c4c626d551f1802876076375a6bbf5782f59de66c6af177622df313f280464736f6c63430008070033",
  "immutableReferences": {},
  "source": "// SPDX-License-Identifier: MIT\r\npragma solidity ^0.8.7;\r\n\r\n\r\ncontract JournalDID {\r\n    address owner; // address - identifier of the user\r\n    int hash; // user private key hash for verification\r\n    enum Journal_usertype{ READER, REVIEWER, EDITOR, AUTHOR }\r\n    Journal_usertype current_usertype; // user type\r\n    address authority_address; // string, only journal authority can elevate user\r\n    string user_data_json; //json string for dynamically storing user data\r\n\r\n    modifier onlyOwner(){\r\n        if (msg.sender == owner) _;\r\n    }\r\n    modifier onlyAuthority(){\r\n        // default (unset) address type is 0x0\r\n        if (authority_address == address(0) || msg.sender == authority_address ) _;\r\n    }\r\n\r\n    constructor() {\r\n        owner = msg.sender;\r\n        current_usertype = Journal_usertype.READER;\r\n        user_data_json = \"{}\";\r\n    }\r\n\r\n    function changeOwner(address _ownerAddress, int _hash) public onlyOwner {\r\n        owner = _ownerAddress;\r\n        hash = _hash;\r\n    }\r\n    \r\n    function getOwner() external view returns (address) {\r\n        return owner;\r\n    }\r\n\r\n    function setHash(int _hash) public onlyOwner {\r\n        hash = _hash;\r\n    }\r\n\r\n    function getHash() external view returns (int) {\r\n        return hash;\r\n    }\r\n    \r\n    function setAuthority(address _authority) public onlyAuthority {\r\n        authority_address = _authority;\r\n    }\r\n\r\n    function getAuthority() external view returns (address) {\r\n        return authority_address;\r\n    }\r\n\r\n    function getType() external view returns (Journal_usertype) {\r\n        return current_usertype;\r\n    }\r\n\r\n    function setReviewerType() public onlyAuthority {\r\n        current_usertype = Journal_usertype.REVIEWER;\r\n    }\r\n\r\n    function setAuthorType() public onlyAuthority {\r\n        current_usertype = Journal_usertype.AUTHOR;\r\n    }\r\n\r\n    function setEditorType() public onlyAuthority {\r\n        current_usertype = Journal_usertype.EDITOR;\r\n    }\r\n\r\n    function setUserData(string memory _newJson) public onlyAuthority {\r\n        user_data_json = _newJson;\r\n    }\r\n\r\n    function getUserData() external view returns (string memory) {\r\n        return user_data_json;\r\n    }\r\n}\r\n",
  "sourcePath": "C:\\UserData\\Projects\\DecentrilizedJournal\\decentralized-journal\\blockchain\\DAO\\contracts\\Journal_DID.sol",
  "compiler": {
    "name": "solc",
    "version": "0.8.7+commit.e28d00a7.Emscripten.clang"
  },
  "schemaVersion": "3.4.8",
  "updatedAt": "2022-09-20T17:57:24.203Z",
  "devdoc": {
    "kind": "dev",
    "methods": {},
    "version": 1
  },
  "userdoc": {
    "kind": "user",
    "methods": {},
    "version": 1
  }
}