{
  "contractName": "UserAuthority",
  "abi": [
    {
      "inputs": [
        {
          "internalType": "address",
          "name": "authority",
          "type": "address"
        }
      ],
      "stateMutability": "nonpayable",
      "type": "constructor"
    },
    {
      "inputs": [
        {
          "internalType": "uint256",
          "name": "",
          "type": "uint256"
        }
      ],
      "name": "users",
      "outputs": [
        {
          "internalType": "address",
          "name": "",
          "type": "address"
        }
      ],
      "stateMutability": "view",
      "type": "function"
    },
    {
      "inputs": [],
      "name": "usersSize",
      "outputs": [
        {
          "internalType": "uint256",
          "name": "",
          "type": "uint256"
        }
      ],
      "stateMutability": "view",
      "type": "function"
    },
    {
      "inputs": [
        {
          "internalType": "address",
          "name": "_authority",
          "type": "address"
        }
      ],
      "name": "setAuthority",
      "outputs": [],
      "stateMutability": "nonpayable",
      "type": "function"
    },
    {
      "inputs": [],
      "name": "getAuthority",
      "outputs": [
        {
          "internalType": "address",
          "name": "",
          "type": "address"
        }
      ],
      "stateMutability": "view",
      "type": "function"
    },
    {
      "inputs": [
        {
          "internalType": "address",
          "name": "userAddr",
          "type": "address"
        }
      ],
      "name": "getUserSmartContractAddr",
      "outputs": [
        {
          "internalType": "address",
          "name": "",
          "type": "address"
        }
      ],
      "stateMutability": "view",
      "type": "function"
    },
    {
      "inputs": [
        {
          "internalType": "address",
          "name": "userAddr",
          "type": "address"
        },
        {
          "internalType": "address",
          "name": "userSmAddr",
          "type": "address"
        }
      ],
      "name": "setUserSmartContractAddr",
      "outputs": [],
      "stateMutability": "nonpayable",
      "type": "function"
    },
    {
      "inputs": [
        {
          "internalType": "address",
          "name": "userAddr",
          "type": "address"
        }
      ],
      "name": "deleteUserContractAddr",
      "outputs": [],
      "stateMutability": "nonpayable",
      "type": "function"
    }
  ],
  "bytecode": "0x608060405234801561001057600080fd5b506040516108d23803806108d28339818101604052810190610032919061008d565b806000806101000a81548173ffffffffffffffffffffffffffffffffffffffff021916908373ffffffffffffffffffffffffffffffffffffffff16021790555050610108565b600081519050610087816100f1565b92915050565b6000602082840312156100a3576100a26100ec565b5b60006100b184828501610078565b91505092915050565b60006100c5826100cc565b9050919050565b600073ffffffffffffffffffffffffffffffffffffffff82169050919050565b600080fd5b6100fa816100ba565b811461010557600080fd5b50565b6107bb806101176000396000f3fe608060405234801561001057600080fd5b506004361061007d5760003560e01c8063ca4fed381161005b578063ca4fed38146100fe578063ce8bb56b1461011a578063e2b178a014610138578063e8abe2ef146101565761007d565b8063365b98b2146100825780637a9e5e4b146100b2578063a4097d90146100ce575b600080fd5b61009c60048036038101906100979190610695565b610172565b6040516100a991906106e0565b60405180910390f35b6100cc60048036038101906100c79190610628565b6101b1565b005b6100e860048036038101906100e39190610628565b6102a0565b6040516100f591906106e0565b60405180910390f35b61011860048036038101906101139190610655565b610309565b005b61012261049a565b60405161012f91906106fb565b60405180910390f35b6101406104a7565b60405161014d91906106e0565b60405180910390f35b610170600480360381019061016b9190610628565b6104d0565b005b6002818154811061018257600080fd5b906000526020600020016000915054906101000a900473ffffffffffffffffffffffffffffffffffffffff1681565b600073ffffffffffffffffffffffffffffffffffffffff1660008054906101000a900473ffffffffffffffffffffffffffffffffffffffff1673ffffffffffffffffffffffffffffffffffffffff161480610257575060008054906101000a900473ffffffffffffffffffffffffffffffffffffffff1673ffffffffffffffffffffffffffffffffffffffff163373ffffffffffffffffffffffffffffffffffffffff16145b1561029d57806000806101000a81548173ffffffffffffffffffffffffffffffffffffffff021916908373ffffffffffffffffffffffffffffffffffffffff1602179055505b50565b6000600160008373ffffffffffffffffffffffffffffffffffffffff1673ffffffffffffffffffffffffffffffffffffffff16815260200190815260200160002060009054906101000a900473ffffffffffffffffffffffffffffffffffffffff169050919050565b600073ffffffffffffffffffffffffffffffffffffffff1660008054906101000a900473ffffffffffffffffffffffffffffffffffffffff1673ffffffffffffffffffffffffffffffffffffffff1614806103af575060008054906101000a900473ffffffffffffffffffffffffffffffffffffffff1673ffffffffffffffffffffffffffffffffffffffff163373ffffffffffffffffffffffffffffffffffffffff16145b156104965780600160008473ffffffffffffffffffffffffffffffffffffffff1673ffffffffffffffffffffffffffffffffffffffff16815260200190815260200160002060006101000a81548173ffffffffffffffffffffffffffffffffffffffff021916908373ffffffffffffffffffffffffffffffffffffffff1602179055506002829080600181540180825580915050600190039060005260206000200160009091909190916101000a81548173ffffffffffffffffffffffffffffffffffffffff021916908373ffffffffffffffffffffffffffffffffffffffff1602179055505b5050565b6000600280549050905090565b60008060009054906101000a900473ffffffffffffffffffffffffffffffffffffffff16905090565b600073ffffffffffffffffffffffffffffffffffffffff1660008054906101000a900473ffffffffffffffffffffffffffffffffffffffff1673ffffffffffffffffffffffffffffffffffffffff161480610576575060008054906101000a900473ffffffffffffffffffffffffffffffffffffffff1673ffffffffffffffffffffffffffffffffffffffff163373ffffffffffffffffffffffffffffffffffffffff16145b156105fb576000600160008373ffffffffffffffffffffffffffffffffffffffff1673ffffffffffffffffffffffffffffffffffffffff16815260200190815260200160002060006101000a81548173ffffffffffffffffffffffffffffffffffffffff021916908373ffffffffffffffffffffffffffffffffffffffff1602179055505b50565b60008135905061060d81610757565b92915050565b6000813590506106228161076e565b92915050565b60006020828403121561063e5761063d610752565b5b600061064c848285016105fe565b91505092915050565b6000806040838503121561066c5761066b610752565b5b600061067a858286016105fe565b925050602061068b858286016105fe565b9150509250929050565b6000602082840312156106ab576106aa610752565b5b60006106b984828501610613565b91505092915050565b6106cb81610716565b82525050565b6106da81610748565b82525050565b60006020820190506106f560008301846106c2565b92915050565b600060208201905061071060008301846106d1565b92915050565b600061072182610728565b9050919050565b600073ffffffffffffffffffffffffffffffffffffffff82169050919050565b6000819050919050565b600080fd5b61076081610716565b811461076b57600080fd5b50565b61077781610748565b811461078257600080fd5b5056fea26469706673582212206fbc564b40b4a860f68d566166b72f49cf836d4280e0fd15b3969534f6b331f364736f6c63430008070033",
  "immutableReferences": {},
  "source": "// SPDX-License-Identifier: MIT\r\npragma solidity ^0.8.7;\r\n\r\n\r\ncontract UserAuthority {\r\n\r\n    address authority_address; // string, only journal authority can elevate user\r\n\r\n    mapping(address => address) UsersSmartContractsAddrs;\r\n\r\n\r\n    address [] public users;\r\n\r\n    //mapping(address => uint) index;\r\n    //address[] UsersAdresses;\r\n\r\n    modifier onlyAuthority(){\r\n        // default (unset) address type is 0x0\r\n        if (authority_address == address(0) || msg.sender == authority_address ) _;\r\n    }\r\n\r\n    constructor(address authority) {\r\n        authority_address = authority;\r\n        //UsersSmartContracts.push(0x0000000000000000000000000000000000000000);\r\n    }\r\n\r\n    function usersSize() public view returns (uint) {\r\n        return users.length;\r\n    }\r\n    \r\n    function setAuthority(address _authority) public onlyAuthority {\r\n        authority_address = _authority;\r\n    }\r\n\r\n    function getAuthority() external view returns (address) {\r\n        return authority_address;\r\n    }\r\n\r\n    function getUserSmartContractAddr(address userAddr) external view returns (address){\r\n\r\n        return UsersSmartContractsAddrs[userAddr];\r\n    }\r\n\r\n\r\n    function setUserSmartContractAddr(address userAddr,address userSmAddr) public onlyAuthority {\r\n\r\n        UsersSmartContractsAddrs[userAddr] = userSmAddr;\r\n        users.push(userAddr);\r\n       \r\n    }\r\n\r\n\r\n    function deleteUserContractAddr(address userAddr) public onlyAuthority {\r\n\r\n        //need to add if condition in case is not authority to return error\r\n        UsersSmartContractsAddrs[userAddr] = 0x0000000000000000000000000000000000000000;\r\n       \r\n    }\r\n\r\n}\r\n",
  "sourcePath": "C:\\UserData\\Projects\\DecentrilizedJournal\\decentralized-journal\\blockchain\\DAO\\contracts\\UserAuthority.sol",
  "compiler": {
    "name": "solc",
    "version": "0.8.7+commit.e28d00a7.Emscripten.clang"
  },
  "schemaVersion": "3.4.8",
  "updatedAt": "2022-09-17T11:33:21.269Z",
  "devdoc": {
    "kind": "dev",
    "methods": {},
    "version": 1
  },
  "userdoc": {
    "kind": "user",
    "methods": {},
    "version": 1
  }
}